:020000040800F2
:100000000000022075480008F9470008074800086A
:100010000F480008174800081F48000800000000AB
:10002000000000000000000000000000F18E000849
:10003000274800080000000041910008A99100082D
:10004000C5480008C5480008C5480008C54800085C
:10005000C5480008C5480008252D0008692D00087E
:10006000C5480008C5480008C5480008C54800083C
:10007000C5480008C5480008C5480008C54800082C
:10008000C5480008C5480008C5480008C54800081C
:10009000C5480008C5480008C5480008AD2D00083F
:1000A000C5480008C5480008C5480008C5480008FC
:1000B000C5480008C5480008C5480008C5480008EC
:1000C000C5480008C5480008C5480008C5480008DC
:1000D000C5480008C5480008C5480008C5480008CC
:1000E000C5480008C5480008C5480008C5480008BC
:1000F000C5480008C5480008C5480008C5480008AC
:10010000C5480008C5480008C5480008C54800089B
:10011000C5480008C548000835480008C54800081B
:10012000C5480008C5480008C5480008C54800087B
:10013000C54800080000000000000000C548000895
:10014000C5480008C5480008C5480008C54800085B
:10015000C5480008C5480008C5480008C54800084B
:10016000C5480008C5480008C5480008C54800083B
:10017000C5480008C5480008000000000000000055
:08018000C5480008C54800084D
:1001900010B5054C237833B9044B13B10448AFF3C1
:1001A00000800123237010BD4C01002000000000DE
:1001B00018AF000808B5034B1BB103490348AFF360
:1001C000008008BD000000005001002018AF0008AA
:1001D00081F0004102E000BF83F0004330B54FEAF8
:1001E00041044FEA430594EA050F08BF90EA020F65
:1001F0001FBF54EA000C55EA020C7FEA645C7FEAF8
:10020000655C00F0E2804FEA5454D4EB5555B8BF1A
:100210006D420CDD2C4480EA020281EA030382EA8B
:10022000000083EA010180EA020281EA0303362D1D
:1002300088BF30BD11F0004F4FEA01314FF4801CF0
:100240004CEA113102D0404261EB410113F0004F02
:100250004FEA03334CEA133302D0524263EB4303B9
:1002600094EA050F00F0A780A4F10104D5F1200E57
:100270000DDB02FA0EFC22FA05F2801841F10001B2
:1002800003FA0EF2801843FA05F359410EE0A5F186
:1002900020050EF1200E012A03FA0EFC28BF4CF0B7
:1002A000020C43FA05F3C01851EBE37101F000456D
:1002B00007D54FF0000EDCF1000C7EEB00006EEB7A
:1002C0000101B1F5801F1BD3B1F5001F0CD3490804
:1002D0005FEA30004FEA3C0C04F101044FEA44525B
:1002E00012F5800F80F09A80BCF1004F08BF5FEAE2
:1002F000500C50F1000041EB045141EA050130BDC2
:100300005FEA4C0C404141EB0101013C28BFB1F5D3
:10031000801FE9D291F0000F04BF01460020B1FA1E
:1003200081F308BF2033A3F10B03B3F120020CDAF1
:100330000C3208DD02F1140CC2F10C0201FA0CF0CF
:1003400021FA02F10CE002F11402D8BFC2F1200C34
:1003500001FA02F120FA0CFCDCBF41EA0C019040EA
:10036000E41AA2BF01EB0451294330BD6FEA040433
:100370001F3C1CDA0C340EDC04F11404C4F120021E
:1003800020FA04F001FA02F340EA030021FA04F330
:1003900045EA030130BDC4F10C04C4F1200220FA87
:1003A00002F001FA04F340EA0300294630BD21FAC5
:1003B00004F0294630BD94F0000F83F4801306BF8B
:1003C00081F480110134013D4EE77FEA645C18BF7F
:1003D0007FEA655C29D094EA050F08BF90EA020F16
:1003E00005D054EA000C04BF1946104630BD91EA0E
:1003F000030F1EBF0021002030BD5FEA545C05D111
:100400004000494128BF41F0004130BD14F580044F
:100410003CBF01F5801130BD01F0004545F0FE41C3
:1004200041F470014FF0000030BD7FEA645C1ABFF8
:10043000194610467FEA655C1CBF0B46024650EA2F
:10044000013406BF52EA033591EA030F41F400215B
:1004500030BD00BF90F0000F04BF0021704730B5E1
:100460004FF4806404F132044FF000054FF00001B6
:1004700050E700BF90F0000F04BF0021704730B577
:100480004FF4806404F1320410F0004548BF40424C
:100490004FF000013EE700BF42004FEAE2014FEAA1
:1004A00031014FEA02701FBF12F07F4393F07F4F7C
:1004B00081F06051704732F07F4208BF704793F07F
:1004C0007F4F04BF41F40021704730B54FF4607492
:1004D00001F0004521F000411CE700BF50EA010295
:1004E00008BF704730B54FF000050AE050EA01023E
:1004F00008BF704730B511F0004502D5404261EBAE
:1005000041014FF4806404F132045FEA915C3FF4EE
:10051000D8AE4FF003025FEADC0C18BF03325FEA8B
:10052000DC0C18BF033202EBDC02C2F1200300FA3C
:1005300003FC20FA02F001FA03FE40EA0E0021FA61
:1005400002F11444BDE600BF70B54FF0FF0C4CF44F
:10055000E06C1CEA11541DBF1CEA135594EA0C0F01
:1005600095EA0C0F00F0DEF82C4481EA030621EA3C
:100570004C5123EA4C5350EA013518BF52EA033577
:1005800041F4801143F4801338D0A0FB02CE4FF029
:100590000005E1FB02E506F00042E0FB03E54FF059
:1005A0000006E1FB03569CF0000F18BF4EF0010E51
:1005B000A4F1FF04B6F5007F64F5407404D25FEA4D
:1005C0004E0E6D4146EB060642EAC62141EA555100
:1005D0004FEAC52040EA5E504FEACE2EB4F1FD0C42
:1005E00088BFBCF5E06F1ED8BEF1004F08BF5FEAC0
:1005F000500E50F1000041EB045170BD06F0004672
:1006000046EA010140EA020081EA0301B4EB5C041E
:10061000C2BFD4EB0C0541EA045170BD41F4801116
:100620004FF0000E013C00F3AB8014F1360FDEBF3B
:10063000002001F0004170BDC4F10004203C35DA17
:100640000C341BDC04F11404C4F1200500FA05F39A
:1006500020FA04F001FA05F240EA020001F000423B
:1006600021F0004110EBD37021FA04F642EB0601B1
:100670005EEA430E08BF20EAD37070BDC4F10C04DB
:10068000C4F1200500FA04F320FA05F001FA04F29F
:1006900040EA020001F0004110EBD37041F100018B
:1006A0005EEA430E08BF20EAD37070BDC4F1200596
:1006B00000FA05F24EEA020E20FA04F301FA05F2FE
:1006C00043EA020321FA04F001F0004121FA04F2A6
:1006D00020EA020000EBD3705EEA430E08BF20EA76
:1006E000D37070BD94F0000F0FD101F000464000B0
:1006F00041EB010111F4801F08BF013CF7D041EA32
:10070000060195F0000F18BF704703F00046520035
:1007100043EB030313F4801F08BF013DF7D043EA06
:100720000603704794EA0C0F0CEA135518BF95EABC
:100730000C0F0CD050EA410618BF52EA4306D1D143
:1007400081EA030101F000414FF0000070BD50EA62
:10075000410606BF1046194652EA430619D094EAEC
:100760000C0F02D150EA013613D195EA0C0F05D1D6
:1007700052EA03361CBF104619460AD181EA03012A
:1007800001F0004141F0FE4141F470014FF00000E2
:1007900070BD41F0FE4141F4780170BD70B54FF07D
:1007A000FF0C4CF4E06C1CEA11541DBF1CEA1355FD
:1007B00094EA0C0F95EA0C0F00F0A7F8A4EB0504DF
:1007C00081EA030E52EA03354FEA013100F08880D6
:1007D0004FEA03334FF0805545EA131343EA12639F
:1007E0004FEA022245EA111545EA10654FEA002654
:1007F0000EF000419D4208BF964244F1FD0404F50D
:10080000407402D25B084FEA3202B61A65EB030568
:100810005B084FEA32024FF480104FF4002CB6EB25
:10082000020E75EB030E22BFB61A754640EA0C00A5
:100830005B084FEA3202B6EB020E75EB030E22BFE5
:10084000B61A754640EA5C005B084FEA3202B6EB26
:10085000020E75EB030E22BFB61A754640EA9C00E5
:100860005B084FEA3202B6EB020E75EB030E22BFB5
:10087000B61A754640EADC0055EA060E18D04FEA73
:10088000051545EA16754FEA06164FEAC30343EA13
:1008900052734FEAC2025FEA1C1CC0D111F4801FE0
:1008A0000BD141EA00014FF000004FF0004CB6E7D9
:1008B00011F4801F04BF01430020B4F1FD0C88BF78
:1008C000BCF5E06F3FF6AFAEB5EB030C04BFB6EB83
:1008D000020C5FEA500C50F1000041EB045170BD76
:1008E0000EF0004E4EEA113114EB5C04C2BFD4EBA3
:1008F0000C0541EA045170BD41F480114FF0000E27
:10090000013C90E645EA060E8DE60CEA135594EAA2
:100910000C0F08BF95EA0C0F3FF43BAF94EA0C0FA5
:100920000AD150EA01347FF434AF95EA0C0F7FF41A
:1009300025AF104619462CE795EA0C0F06D152EA6E
:1009400003353FF4FDAE1046194622E750EA410652
:1009500018BF52EA43067FF4C5AE50EA41047FF463
:100960000DAF52EA43057FF4EBAE12E74FF0FF3CC8
:1009700006E000BF4FF0010C02E000BF4FF0010C99
:100980004DF804CD4FEA410C7FEA6C5C4FEA430C12
:1009900018BF7FEA6C5C1BD001B050EA410C0CBF61
:1009A00052EA430C91EA030F02BF90EA020F0020C3
:1009B000704710F1000F91EA030F58BF994208BF2A
:1009C00090422CBFD8176FEAE37040F001007047E7
:1009D0004FEA410C7FEA6C5C02D150EA013C07D13E
:1009E0004FEA430C7FEA6C5CD6D152EA033CD3D089
:1009F0005DF8040B704700BF8446104662468C4683
:100A00001946634600E000BF01B5FFF7B7FF0028B5
:100A100048BF10F1000F01BD4DF808EDFFF7F4FFDE
:100A20000CBF012000205DF808FB00BF4DF808ED69
:100A3000FFF7EAFF34BF012000205DF808FB00BF8C
:100A40004DF808EDFFF7E0FF94BF012000205DF8AE
:100A500008FB00BF4DF808EDFFF7CEFF94BF012063
:100A600000205DF808FB00BF4DF808EDFFF7C4FF5C
:100A700034BF012000205DF808FB00BF4FEA410CA5
:100A80007FEA6C5C02D150EA013C0AD14FEA430C88
:100A90007FEA6C5C02D152EA033C02D14FF00000C5
:100AA00070474FF0010070474FEA410212F5001203
:100AB00015D211D56FF47873B3EB625212D94FEAA5
:100AC000C12343F0004343EA505311F0004F23FA8F
:100AD00002F018BF404270474FF00000704750EAE4
:100AE000013005D111F0004008BF6FF000407047A1
:100AF0004FF00000704700BF4FEA4102B2F1E043FF
:100B000024BFB3F5001CDCF1FE5C0DD901F0004CF4
:100B10004FEAC0024CEA5070B2F1004F40EB830044
:100B200008BF20F00100704711F0804F21D113F170
:100B30003872BCBF01F00040704741F480114FEAA9
:100B40005252C2F11802C2F1200C10FA0CF320FA32
:100B500002F018BF40F001004FEAC1234FEAD3234F
:100B600003FA0CFC40EA0C0023FA02F34FEA4303B9
:100B7000CCE77FEA625307D150EA01331EBF4FF042
:100B8000FE4040F44000704701F0004040F0FE405D
:100B900040F40000704700BF53B94AB9002908BFAC
:100BA00000281CBF4FF0FF314FF0FF3000F06AB952
:100BB000ADF1080C6DE904CE00F006F8DDF804E0B4
:100BC000DDE9022304B070472DE9F047089D0C468B
:100BD000002B4ED194468C458646B2FA82F262D9F9
:100BE0004AB1C2F12003914020FA03F30CFA02FC4F
:100BF000194300FA02FE4FEA1C471FFA8CF6B1FBBC
:100C0000F7F44FEA1E4307FB141143EA014304FBC8
:100C100006F199420AD91CEB030304F1FF3080F07E
:100C20001281994240F20F81023C6344591A1FFA23
:100C30008EF3B1FBF7F007FB101143EA014300FB11
:100C400006F69E420AD91CEB030300F1FF3180F047
:100C5000FC809E4240F2F980634402389B1B40EACC
:100C6000044000211DB1D3400022C5E90032BDE897
:100C7000F0878B4205D90DB1C5E900010021084676
:100C8000F5E7B3FA83F1002946D1A34202D390429B
:100C9000C0F0F080861A64EB03030120002DE6D03B
:100CA000C5E90063E3E7002A40F09080A1EB0C0463
:100CB0004FEA1C481FFA8CF70121B4FBF8F64FEA03
:100CC0001E4308FB164443EA044307FB06F0984220
:100CD00008D91CEB030306F1FF3402D2984200F25C
:100CE000CD8026461C1A1FFA8EF3B4FBF8F008FBE1
:100CF000104443EA044300FB07F79F4208D91CEB6A
:100D0000030300F1FF3402D29F4200F2B08020467C
:100D1000DB1B40EA0640A5E7C1F120068B4022FA22
:100D200006F71F4320FA06FC04FA01F343EA0C031A
:100D3000F44000FA01F8380C4FEA1349B4FBF0FE16
:100D40001FFA87FC00FB1E4449EA04440EFB0CF921
:100D5000A14502FA01F20AD93C190EF1FF3A80F0DE
:100D60008480A14540F28180AEF1020E3C44A4EBA8
:100D700009041FFA83F9B4FBF0F300FB134449EABA
:100D8000044403FB0CFCA44507D93C1903F1FF30D4
:100D900067D2A44565D9023B3C4443EA0E40A0FB20
:100DA0000293A4EB0C049C42CE469C4651D34ED0F9
:100DB00055B1B8EB0E0364EB0C0404FA06F6CB4015
:100DC0001E43CC40C5E90064002150E7C2F1200376
:100DD00020FA03F10CFA02FC24FA03F394400C43CA
:100DE0004FEA1C4800FA02FE1FFA8CF7B3FBF8F03A
:100DF00008FB1031230C43EA014300FB07F1994241
:100E000008D91CEB030300F1FF362CD299422AD9F2
:100E1000023863445B1AA4B2B3FBF8F108FB113348
:100E200044EA034401FB07F3A34208D91CEB040482
:100E300001F1FF3613D2A34211D902396444E41AF6
:100E400041EA004139E70446F0E6084606E7C845AE
:100E5000AED2B9EB020E63EB070C0138A8E73146BE
:100E6000EDE7034699E73046D4E7D6467FE763448B
:100E700002384DE70646234608460FE7023E634424
:100E800030E700BF704700BF80B586B000AFF860A4
:100E9000B9607A607B800023FB74FB68BA681A60D3
:100EA000FB687A685A60FB687A881A81FB683A8C1A
:100EB0005A81FB68BA8C9A8100237B611BE0FA6837
:100EC0007B6904339B0013444FF000021A60FA68F8
:100ED0007B6906339B00134404334FF000021A6011
:100EE000FA687B690A339B0013444FF000021A60D2
:100EF0007B6901337B617B69022BE0DDFB6858680D
:100F0000FB681B890122194603F0C2FFFB68586881
:100F1000FB685B890122194603F0BAFFFB68586839
:100F2000FB689B890122194603F0B2FF07F1120208
:100F300001230021F86800F00BFA03461A46FB7CF7
:100F40001344FB74BB7CFA2B01D00023DBE0FB7C59
:100F50000133FB74B6221421F86800F048FA034606
:100F60001A46FB7C1344FB74142003F0EFFC0822A8
:100F70000F21F86800F03BFA03461A46FB7C134445
:100F8000FB74052003F0E2FC0A221021F86800F04F
:100F90002EFA03461A46FB7C1344FB74052003F02B
:100FA000D5FC00221121F86800F021FA03461A4608
:100FB000FB7C1344FB74052003F0C8FC4022132182
:100FC000F86800F014FA03461A46FB7C1344FB74DD
:100FD000052003F0BBFC07F1120201230021F86891
:100FE00000F036FA03461A46FB7C1344FB74BB7CC4
:100FF0000F2B01D0002386E0B6221421F86800F000
:1010000076FA03461A46FB7C1344FB74142003F063
:101010009DFC01220F21F86800F069FA03461A4688
:10102000FB7C1344FB74052003F090FC8722102105
:10103000F86800F05CFA03461A46FB7C1344FB7424
:10104000052003F083FC00221121F86800F04FFA1C
:1010500003461A46FB7C1344FB74052003F076FC20
:1010600000221221F86800F042FA03461A46FB7C7F
:101070001344FB74052003F069FC40221321F86837
:1010800000F035FA03461A46FB7C1344FB74052036
:1010900003F05CFC00224B21F86800F0A8FA03463C
:1010A0001A46FB7C1344FB74052003F04FFC83229B
:1010B0004B21F86800F09BFA03461A46FB7C134468
:1010C000FB74142003F042FC07F1120201234021BB
:1010D000F86800F03DFA03461A46FB7C1344FB74A3
:1010E000BB7C322B01D000230DE000224C21F8689C
:1010F00000F07DFA03461A46FB7C1344FB7405207E
:1011000003F024FCFB7C18461837BD4680BD000068
:1011100080B586B000AF786007F10C02072302218A
:10112000786800F015F90346FB757B7B1B021AB249
:101130003B7B1BB203F0F0031BB213431BB21B112A
:10114000BB82B7F9143007EE903AF8EEE77A9FEDDC
:10115000277A67EE877A7B68C3ED047AFB7B1B02F4
:101160001AB2BB7B1BB203F0F0031BB213431BB2DA
:101170001B11BB82B7F9143007EE903AF8EEE77A0C
:101180009FED1B7A67EE877A7B68C3ED057A7B7CDF
:101190001B021AB23B7C1BB203F0F0031BB21343D9
:1011A0001BB21B11BB82B7F9143007EE903AF8EE70
:1011B000E77A9FED0F7A67EE877A7B68C3ED067A50
:1011C000BB7C5BB207EE903AF8EEE77AB6EE007AB7
:1011D00067EE877AB3EE077A77EE877A7B68C3ED9E
:1011E0000D7AFB7D18461837BD4680BD9A0E1D3D11
:1011F0009A0E1DBD80B586B000AF786007F10C0275
:1012000006230221786800F023F90346FB757B7BF7
:101210001B021AB23B7B1BB21343BB82B7F91430DB
:1012200007EE903AF8EEE77A9FED197A67EE877A43
:101230007B68C3ED077AFB7B1B021AB2BB7B1BB238
:101240001343BB82B7F9143007EE903AF8EEE77A11
:101250009FED107A67EE877A7B68C3ED087A7B7C16
:101260001B021AB23B7C1BB21343BB82B7F914308A
:1012700007EE903AF8EEE77A9FED067A67EE877A06
:101280007B68C3ED097AFB7D18461837BD4680BDE3
:10129000787D0B3A787D0BBA80B586B000AF786068
:1012A00007F10C0206234221786800F051F9034649
:1012B000FB757B7B5BB25B011AB23B7BDB08DBB26D
:1012C0001BB21343BB82B7F9143007EE903AF8EE25
:1012D000E77A9FED1D7A67EE877A7B68C3ED0A7A1D
:1012E000FB7B5BB25B011AB2BB7BDB08DBB21BB2E0
:1012F0001343BB82B7F9143007EE903AF8EEE77A61
:101300009FED127A67EE877A7B68C3ED0B7A7B7C60
:101310005BB2DB011AB23B7C5B08DBB21BB213434E
:10132000BB82B7F9143007EE903AF8EEE77A9FEDFA
:10133000077A67EE877A7B68C3ED0C7AFB7D1846E7
:101340001837BD4680BD00BF1D5F4A3B1D5F4ABBCD
:1013500080B586B000AFF8607A601A460B46FB7223
:1013600013463B81FB685868FB681B8900221946BD
:1013700003F08EFDFB7A63F07F03DBB2FB75FB6845
:10138000186807F117014FF0FF33012205F0A8FAA2
:101390000346002B09D0FB685868FB681B890122B3
:1013A000194603F075FD00231DE0FB6818683A89B3
:1013B0004FF0FF33796805F0C7FB0346002B09D0D7
:1013C000FB685868FB681B890122194603F060FD21
:1013D000002308E0FB685868FB681B890122194656
:1013E00003F056FD012318461837BD4680BD80B571
:1013F00084B000AF78600B46FB701346BB707B680F
:1014000058687B681B890022194603F041FDFB7870
:101410003B73BB787B737B68186807F10C014FF056
:10142000FF33022205F05CFA0346002B0CBF0123B8
:101430000023DBB2FB737B6858687B681B89012241
:10144000194603F025FDFB7B18461037BD4680BDCD
:1014500080B586B000AFF8607A601A460B46FB7222
:1014600013463B81FB685868FB685B89002219467C
:1014700003F00EFDFB7A63F07F03DBB2FB75FB68C4
:10148000186807F117014FF0FF33012205F028FA21
:101490000346002B09D0FB685868FB685B89012272
:1014A000194603F0F5FC00231DE0FB6818683A8933
:1014B0004FF0FF33796805F047FB0346002B09D056
:1014C000FB685868FB685B890122194603F0E0FC61
:1014D000002308E0FB685868FB685B890122194615
:1014E00003F0D6FC012318461837BD4680BD80B5F1
:1014F00084B000AF78600B46FB701346BB707B680E
:1015000058687B685B890022194603F0C1FCFB78B0
:101510003B73BB787B737B68186807F10C014FF055
:10152000FF33022205F0DCF90346002B0CBF012338
:101530000023DBB2FB737B6858687B685B89012200
:10154000194603F0A5FCFB7B18461037BD4680BD4D
:1015500080B586B000AFF8607A601A460B46FB7221
:1015600013463B81FB685868FB689B89002219463B
:1015700003F08EFCFB7A63F07F03DBB2FB75FB6844
:10158000186807F117014FF0FF33012205F0A8F9A1
:101590000346002B09D0FB685868FB689B89012231
:1015A000194603F075FC00231DE0FB6818683A89B2
:1015B0004FF0FF33796805F0C7FA0346002B09D0D6
:1015C000FB685868FB689B890122194603F060FCA0
:1015D000002308E0FB685868FB689B8901221946D4
:1015E00003F056FC012318461837BD4680BD80B570
:1015F00084B000AF78600B46FB701346BB707B680D
:1016000058687B689B890022194603F041FCFB78EF
:101610003B73BB787B737B68186807F10C014FF054
:10162000FF33022205F05CF90346002B0CBF0123B7
:101630000023DBB2FB737B6858687B689B890122BF
:10164000194603F025FCFB7B18461037BD4680BDCC
:1016500080B485B000AFF86087ED020A79603A6027
:10166000FB684FF000021A60FB684FF000025A60FE
:10167000FB68BA689A60FB684FF00002DA60FB68AA
:101680004FF000021A61FB68BA685A617B681A68F9
:10169000FB689A617B685A68FB68DA613B681A6884
:1016A000FB681A623B685A68FB685A623B689A6832
:1016B000FB689A62FB684FF00002DA62FB684FF049
:1016C00000021A63FB684FF000025A6300BF143730
:1016D000BD465DF8047B704780B592B000AFF860FE
:1016E000B96087ED010ABB681B687B64BB685B68F7
:1016F0003B64BB689B68FB63BB681A68FB68DA6283
:10170000BB685A68FB681A63BB689A68FB685A63CF
:10171000FB681B681846FEF7BFFE02460B4643EC0B
:10172000102B07F0F5FF53EC102B10461946FFF76E
:10173000E3F90346BB63FB681B681846FEF7ACFE83
:1017400002460B4643EC102B07F08EFF53EC102B98
:1017500010461946FFF7D0F903467B63D24B3B6333
:10176000FB68D3ED017AF0EEE77A9FEDD07AF4EEE4
:10177000C77AF1EE10FA00F39181FB68D3ED017A9C
:10178000F0EEE77A9FEDCA7AF4EEC77AF1EE10FA3E
:1017900000F18481FB6893ED007AD7ED106AD7EDF4
:1017A0000E7A66EEA76A97ED0F6AD7ED0D7A66EEB0
:1017B000277A76EEA76AD7ED0C7A66EEA76AD7EDA0
:1017C000117A76EEA76AD7ED017A66EEA77A77EE00
:1017D000277AFB68C3ED007AFB6893ED017AD7EDB9
:1017E000106AD7ED0D7A66EEA76A97ED0F6AD7ED0E
:1017F0000E7A66EE277A76EEE76AD7ED017A66EE24
:10180000A77A77EE277AFB68C3ED017AFB681B683D
:101810001846FEF741FE02460B4643EC102B07F03C
:1018200077FF53EC102B10461946FFF765F9034676
:10183000BB63FB681B681846FEF72EFE02460B468C
:1018400043EC102B07F010FF53EC102B10461946F9
:10185000FFF752F903467B63FB68D3ED017AF0EEA4
:10186000E77A9FED927AF4EEC77AF1EE10FA00F380
:101870001781FB68D3ED017AF0EEE77A9FED8C7A61
:10188000F4EEC77AF1EE10FA00F10A8197ED107AC2
:10189000D7ED0D7A27EE277AD7ED0F6AD7ED0E7ABE
:1018A00066EEA77A37EE677AD7ED0C7A67EE277A7D
:1018B000C7ED087A97ED0F7AD7ED0D7A27EE277AE4
:1018C000D7ED106AD7ED0E7A66EEA77A37EE277A53
:1018D000D7ED0C7A67EEA77AF7EE006A77EEA67A74
:1018E00067EE277AC7ED097A97ED0F7AD7ED0D7A73
:1018F00027EE277AD7ED106AD7ED0E7A66EEA77A33
:1019000077EE277AF1EE677AC7ED0A7A4FF0000397
:10191000FB62FB6893ED067AD7ED087A77EEA76A4B
:10192000FB68D3ED027A66EEA77A37EE277AD7ED19
:10193000096AFB68D3ED037A66EEA77A37EE277A59
:10194000D7ED096AFB68D3ED047A66EEA77A37EE25
:10195000277AD7ED017A67EE277AC7ED047A97EDFB
:10196000087AFB68D3ED037A27EE277AD7ED0A6A67
:10197000FB68D3ED027A66EEA77A37EE277AD7EDC9
:10198000096AFB68D3ED057A66EEA77A37EE277A07
:10199000D7ED0B6AFB68D3ED037A66EEA77A37EED4
:1019A000277AD7ED017A67EE277AC7ED057A97EDAA
:1019B000087AFB68D3ED047A27EE277AD7ED0A6A16
:1019C000FB68D3ED027A66EEA77A37EE277AD7ED79
:1019D000096AFB68D3ED057A66EEA77A37EE277AB7
:1019E000D7ED0B6AFB68D3ED047A66EEA77A37EE83
:1019F000277AD7ED017A67EE277AC7ED067AFB687A
:101A000093ED077AD7ED0A6AFB68D3ED037A66EEA9
:101A1000A77A37EE277AD7ED0A6AFB68D3ED047A06
:101A200066EEA77A37EE277AD7ED0B7A77EEA76ABC
:101A3000FB68D3ED057A66EEA77A37EE277AD7ED05
:101A4000017A67EE277AC7ED077AFB6893ED027A91
:101A5000D7ED047A77EE277AFB68C3ED027AFB684C
:101A600093ED037AD7ED057A77EE277AFB68C3ED1D
:101A7000037AFB6893ED047AD7ED067A77EE277A3E
:101A8000FB68C3ED047AFB6893ED057AD7ED077A1E
:101A900077EE277AFB68C3ED057A02E000BF00E02D
:101AA00000BF4837BD4680BD286B6E4ECF2DCA3F64
:101AB000E6F1C73F80B5B6B000AFF860B96087ED1A
:101AC000010AFB68DB6AC7F8D430FB681B6BC7F8F8
:101AD000D030FB685B6BC7F8CC30BB681B68C7F8BD
:101AE000C830BB685B68C7F8C430BB689B68C7F880
:101AF000C030FB681B681846FEF7CEFC02460B465A
:101B000043EC102B07F004FE53EC102B1046194643
:101B1000FEF7F2FF0346C7F8BC30FB681B681846A7
:101B2000FEF7BAFC02460B4643EC102B07F09CFD77
:101B300053EC102B10461946FEF7DEFF0346C7F89C
:101B4000B830FB685B681846FEF7A6FC02460B46F9
:101B500043EC102B07F0DCFD53EC102B104619461C
:101B6000FEF7CAFF0346C7F8B430FB685B68184647
:101B7000FEF792FC02460B4643EC102B07F074FD77
:101B800053EC102B10461946FEF7B6FF0346C7F874
:101B9000B03097ED347AD7ED017A27EE277AD7ED7A
:101BA0002D7A27EE277AD7ED2D7ADFEDF06A67EEF2
:101BB000A67A77EE277AC7ED277A97ED337AD7EDB5
:101BC000017A27EE277AD7ED2C7A27EE277AD7ED00
:101BD000356AD7ED017A66EEA76AD7ED2D7A66EE03
:101BE000A77A37EE677AD7ED2C7ADFEDE06A67EEF9
:101BF000A66AD7ED2F7A66EEA77A77EE677AC7EDF9
:101C0000287AD7ED347AB1EE677AD7ED017A27EEEC
:101C1000277AD7ED2C7A27EE277AD7ED2C7ADFEDCD
:101C2000D36A67EEA66AD7ED2E7A66EEA77A77EECC
:101C3000677AC7ED297A4FF00003C7F8843097ED33
:101C4000347AD7ED017A27EE277AD7ED2C7A27EE72
:101C5000277AD7ED2C7ADFEDC56A67EEA67A77EEA4
:101C6000277AC7ED227AD7ED2E7A9FEDC17A27EE3B
:101C7000877AD7ED2C7A67EE277AC7ED237AD7EDEE
:101C8000337AB1EE677AD7ED017A27EE277AD7ED6E
:101C90002D7A27EE277AD7ED356AD7ED017A66EEF1
:101CA000A76AD7ED2C7A66EEA77A37EE677AD7ED7A
:101CB0002F7ADFEDAE6A67EEA66AD7ED2D7A66EE73
:101CC000A77A77EE277AC7ED247AD7ED2F7A9FEDA2
:101CD000A77A27EE877AD7ED2C7A67EE277AC7EDB9
:101CE000257A97ED347AD7ED017A27EE277AD7ED6A
:101CF0002E7ADFED9E6A67EEA67A37EE277AD7ED69
:101D00002D7A67EE277AC7ED267AFB6893ED057A80
:101D1000D7ED227A27EE277AD7ED227A27EE277A97
:101D2000FB68D3ED087A77EE277AC7ED187A97ED3E
:101D3000227AD7ED237A27EE277AFB68D3ED047A4F
:101D400027EE277AD7ED226AD7ED247A66EEA76AC6
:101D5000FB68D3ED057A66EEA77A77EE277AC7EDB2
:101D6000197A97ED227AD7ED257A27EE277AFB6844
:101D7000D3ED047A27EE277AD7ED226AD7ED267ABB
:101D800066EEA76AFB68D3ED057A66EEA77A77EE72
:101D9000277AC7ED1A7A97ED227AD7ED236AFB6886
:101DA000D3ED037A66EEA76A97ED246AFB68D3ED5C
:101DB000057A66EE277A76EEA77A67EE277AC7ED80
:101DC0001B7AFB6893ED097AD7ED236A97ED236AB6
:101DD000FB68D3ED027A26EE276AD7ED245AFB681A
:101DE000D3ED047A65EEA77A76EE277A66EEA77AC7
:101DF00037EE277AD7ED246A97ED236AFB68D3ED97
:101E0000037A26EE276AD7ED245AFB68D3ED057ACC
:101E100065EEA77A76EE277A66EEA77A77EE277ACE
:101E2000C7ED1C7A97ED257AD7ED236AFB68D3EDD1
:101E3000027A66EEA76A97ED246AFB68D3ED047A0E
:101E400066EE277A76EEA77A27EE277AD7ED266A0E
:101E500097ED236AFB68D3ED037A26EE276AD7ED68
:101E6000245AFB68D3ED057A65EEA77A76EE277AD9
:101E700066EEA77A77EE277AC7ED1D7A97ED227A7C
:101E8000D7ED256AFB68D3ED037A66EEA76A97ED76
:101E9000266AFB68D3ED057A66EE277A76EEA77A96
:101EA00067EE277AC7ED1E7A97ED237AD7ED256A7C
:101EB000FB68D3ED027A66EEA76A97ED266AFB68A7
:101EC000D3ED047A66EE277A76EEA77A27EE277AA4
:101ED000D7ED246A97ED256AFB68D3ED037A26EEE9
:101EE000276AD7ED265AFB68D3ED057A65EEA77A07
:101EF00076EE277A66EEA77A77EE277AC7ED1F7A15
:101F0000FB6893ED0A7AD7ED256A97ED256AFB68A1
:101F1000D3ED027A26EE276AD7ED265AFB68D3ED79
:101F2000047A65EEA77A76EE277A66EEA77A37EE20
:101F3000277AD7ED266A97ED256AFB68D3ED037AF9
:101F400026EE276AD7ED265AFB68D3ED057A65EEB3
:101F5000A77A76EE277A66EEA77A77EE277AC7ED2C
:101F6000207A97ED187AD7ED1C7A07E0C3F51C416B
:101F7000C3F51CC1BD3786B5BD37863527EE277A38
:101F8000D7ED207A27EE277AD7ED186AD7ED1D7A9C
:101F900066EEA76AD7ED1F7A66EEA77A37EE677A04
:101FA000D7ED196AD7ED1B7A66EEA76AD7ED207ACE
:101FB00066EEA77A37EE677AD7ED196AD7ED1D7A04
:101FC00066EEA76AD7ED1E7A66EEA77A37EE277A15
:101FD000D7ED1A6AD7ED1B7A66EEA76AD7ED1F7A9E
:101FE00066EEA77A37EE277AD7ED1A6AD7ED1C7A14
:101FF00066EEA76AD7ED1E7A66EEA77A77EE677A65
:10200000C7ED2B7AD7ED2B7A1FED267AF4EEC77A3F
:10201000F1EE10FA09D4D7ED2B7A1FED297AF4EE00
:10202000C77AF1EE10FA40F37883F7EE006A97ED85
:102030002B7AC6EE877AC7ED2A7A97ED1C7AD7ED10
:10204000207A27EE277AD7ED1D6AD7ED1F7A66EE44
:10205000A77A37EE677AD7ED2A7A67EE277AC7ED47
:10206000057AD7ED2A7AB1EE677AD7ED196AD7EDFE
:10207000207A66EEA76A97ED1A6AD7ED1F7A66EEA8
:10208000277A76EEE77A67EE277AC7ED067A97ED3C
:10209000197AD7ED1D7A27EE277AD7ED1A6AD7ED90
:1020A0001C7A66EEA77A37EE677AD7ED2A7A67EE62
:1020B000277AC7ED077AD7ED2A7AB1EE677AD7ED9E
:1020C0001B6AD7ED207A66EEA76A97ED1D6AD7EDF9
:1020D0001E7A66EE277A76EEE77A67EE277AC7ED04
:1020E000087A97ED187AD7ED207A27EE277AD7ED80
:1020F0001A6AD7ED1E7A66EEA77A37EE677AD7EDC1
:102100002A7A67EE277AC7ED097AD7ED2A7AB1EEF7
:10211000677AD7ED186AD7ED1D7A66EEA76A97ED54
:102120001A6AD7ED1B7A66EE277A76EEE77A67EEC3
:10213000277AC7ED0A7A97ED1B7AD7ED1F7A27EE3B
:10214000277AD7ED1C6AD7ED1E7A66EEA77A37EEAE
:10215000677AD7ED2A7A67EE277AC7ED0B7AD7ED43
:102160002A7AB1EE677AD7ED186AD7ED1F7A66EE54
:10217000A76A97ED196AD7ED1E7A66EE277A76EE92
:10218000E77A67EE277AC7ED0C7A97ED187AD7EDE4
:102190001C7A27EE277AD7ED196AD7ED1B7A66EEFF
:1021A000A77A37EE677AD7ED2A7A67EE277AC7EDF6
:1021B0000D7A97ED087AD7ED236AFB68D3ED027AA2
:1021C00066EEA76A97ED246AFB68D3ED037A66EEA4
:1021D000277A76EEA77A27EE277AD7ED0B6A97ED66
:1021E000256AFB68D3ED027A26EE276AD7ED265AD8
:1021F000FB68D3ED037A65EEA77A76EE277A66EE72
:10220000A77A37EE277AD7ED226AD7ED057A66EE00
:10221000A76AFB68D3ED037A66EEA77A77EE277A92
:10222000C7ED127A97ED097AD7ED236AFB68D3EDF3
:10223000027A66EEA76A97ED246AFB68D3ED037A0B
:1022400066EE277A76EEA77A27EE277AD7ED0C6A24
:1022500097ED256AFB68D3ED027A26EE276AD7ED63
:10226000265AFB68D3ED037A65EEA77A76EE277AD5
:1022700066EEA77A37EE277AD7ED226AD7ED067A8F
:1022800066EEA76AFB68D3ED037A66EEA77A77EE6F
:10229000277AC7ED137A97ED0A7AD7ED236AFB68A0
:1022A000D3ED027A66EEA76A97ED246AFB68D3ED58
:1022B000037A66EE277A76EEA77A27EE277AD7EDAD
:1022C0000D6A97ED256AFB68D3ED027A26EE276A40
:1022D000D7ED265AFB68D3ED037A65EEA77A76EE42
:1022E000277A66EEA77A37EE277AD7ED226AD7EDFE
:1022F000077A66EEA76AFB68D3ED037A66EEA77AE3
:1023000077EE277AC7ED147A97ED087AD7ED236A2E
:10231000FB68D3ED047A66EEA76A97ED246AFB6842
:10232000D3ED057A66EE277A76EEA77A27EE277A3E
:10233000D7ED0B6A97ED256AFB68D3ED047A26EE9C
:10234000276AD7ED265AFB68D3ED057A65EEA77AA2
:1023500076EE277A66EEA77A37EE277AD7ED226AED
:10236000D7ED057A66EEA76AFB68D3ED057A66EECF
:10237000A77A77EE277AC7ED157A97ED097AD7ED28
:10238000236AFB68D3ED047A66EEA76A97ED246AA8
:10239000FB68D3ED057A66EE277A76EEA77A27EE0C
:1023A000277AD7ED0C6A97ED256AFB68D3ED047A9E
:1023B00026EE276AD7ED265AFB68D3ED057A65EE3F
:1023C000A77A76EE277A66EEA77A37EE277AD7EDE8
:1023D000226AD7ED067A66EEA76AFB68D3ED057A26
:1023E00066EEA77A77EE277AC7ED167A97ED0A7A26
:1023F000D7ED236AFB68D3ED047A66EEA76A97ED02
:10240000246AFB68D3ED057A66EE277A76EEA77A22
:1024100027EE277AD7ED0D6A97ED256AFB68D3ED95
:10242000047A26EE276AD7ED265AFB68D3ED057AA3
:1024300065EEA77A76EE277A66EEA77A37EE277AE8
:10244000D7ED226AD7ED077A66EEA76AFB68D3ED6F
:10245000057A66EEA77A77EE277AC7ED177AFB68DA
:10246000D3ED047AB1EE677AD7ED226AD7ED127A0E
:1024700066EEA76A97ED246AD7ED137A66EE277A9F
:1024800076EEA76A97ED266AD7ED147A66EE277A7C
:1024900076EEA77A27EE277AFB68D3ED026A97EDEE
:1024A000236AD7ED137A26EE276AD7ED255AD7EDA2
:1024B000147A65EEA77A76EE277AB7EE006A77EEA1
:1024C000C67A66EEA77A77EE677AC7ED0E7AFB6872
:1024D000D3ED057AB1EE677AD7ED226AD7ED127A9D
:1024E00066EEA76A97ED246AD7ED137A66EE277A2F
:1024F00076EEA76A97ED266AD7ED147A66EE277A0C
:1025000076EEA77A27EE277AFB68D3ED036A97ED7C
:10251000236AD7ED137A26EE276AD7ED255AD7ED31
:10252000147A65EEA77A76EE277AB7EE006A77EE30
:10253000C67A66EEA77A77EE677AC7ED0F7AFB6800
:10254000D3ED047AB1EE677AD7ED226AD7ED157A2A
:1025500066EEA76A97ED246AD7ED167A66EE277ABB
:1025600076EEA76A97ED266AD7ED177A66EE277A98
:1025700076EEA77AF7EE006A77EEE67A27EE277A0C
:10258000FB68D3ED026A97ED236AD7ED167A26EE43
:10259000276AD7ED255AD7ED177A65EEA77A76EE3A
:1025A000277A66EEA77A77EE677AC7ED107AFB682E
:1025B000D3ED057AB1EE677AD7ED226AD7ED157AB9
:1025C00066EEA76A97ED246AD7ED167A66EE277A4B
:1025D00076EEA76A97ED266AD7ED177A66EE277A28
:1025E00076EEA77AF7EE006A77EEE67A27EE277A9C
:1025F000FB68D3ED036A97ED236AD7ED167A26EED2
:10260000276AD7ED255AD7ED177A65EEA77A76EEC9
:10261000277A66EEA77A77EE677AC7ED117AFB68BC
:1026200093ED027AD7ED0E7A77EE277AFB68C3ED49
:10263000027AFB6893ED037AD7ED0F7A77EE277A6B
:10264000FB68C3ED037AFB6893ED047AD7ED107A4B
:1026500077EE277AFB68C3ED047AFB6893ED057A81
:10266000D7ED117A77EE277AFB68C3ED057AFB6820
:1026700093ED007AD7ED126AD7ED277A97ED326A9B
:1026800076EE677A66EEA77A37EE277AD7ED136A89
:10269000D7ED287A97ED316A76EE677A66EEA77AFB
:1026A00037EE277AD7ED146AD7ED297A97ED306A9D
:1026B00076EE677A66EEA77A77EE277AFB68C3ED47
:1026C000007AFB6893ED017AD7ED156AD7ED277A8A
:1026D00097ED326A76EE677A66EEA77A37EE277A5A
:1026E000D7ED166AD7ED287A97ED316A76EE677ADC
:1026F00066EEA77A37EE277AD7ED176AD7ED297AF3
:1027000097ED306A76EE677A66EEA77A77EE277AEB
:10271000FB68C3ED017A012300E000231846D83797
:10272000BD4680BD80B487B000AFF8600B4687ED32
:10273000010AC7ED000AFB72D7ED017A9FED2E7AF0
:1027400067EE877AC7ED057AFB7A012B41D1D7ED89
:10275000057A9FED2A7A27EE877AD7ED057A27EE5C
:10276000277AD7ED007A27EE277AD7ED007A67EE41
:10277000277AFB68C3ED037AD7ED057A9FED207ABF
:1027800027EE877AD7ED007A67EE277AB7EE007AE0
:1027900037EE877AFB68D3ED037A37EE277AF7EEC8
:1027A000006AC6EE877AFB68C3ED047AD7ED057A36
:1027B0009FED137A27EE877AD7ED007A67EE277AB6
:1027C000B0EE007A77EE877AF1EE677AFB68C3EDB8
:1027D000057AFB684FF000025A60FB684FF0000278
:1027E0009A60FB684FF000021A6000BF1C37BD46BC
:1027F0005DF8047B704700BFDB0FC940F9A0CF3FF5
:102800001B2F0D4080B483B000AF786087ED000AC5
:102810007B685A687B689A607B681A687B685A6034
:102820007B6893ED047A7B68D3ED036AD7ED007A79
:1028300066EEA76A7B6893ED056A7B68D3ED017A43
:1028400026EE276A7B68D3ED027A76EE277A76EE5B
:10285000E77A67EE277A7B68C3ED007A7B681B68AE
:1028600007EE903AB0EE670A0C37BD465DF8047B80
:102870007047000080B58CB004AFF860B9601346B3
:10288000FB71FB68BA681A60FB7907EE903AF8EEC4
:10289000E77A9FED537A27EE877ADFED526AC6EE2C
:1028A000877AB6EE007A77EE877AB7EE007A77EE1F
:1028B000C77AFCEEE77AC7ED007A3B78DAB2FB68BC
:1028C0001A714FF400433B83FB68186807F1180244
:1028D000642300930223802102F076FC0A2002F098
:1028E00035F8FB681868642302930123019307F10C
:1028F0001703009301230022802102F063FD0023CF
:102900003B76FB7D5BB203F06F035BB243F01003D9
:102910005BB2DBB27B76FB68186807F118026423B0
:1029200000930223802102F04FFCFE233B76FB68DC
:102930001B797B76FB68186807F118026423009303
:102940000223802102F040FC00233B76FB7D7B7656
:10295000052001F0FBFFFB7D63F05F03DBB27B76BC
:10296000FB68186807F11802642300930223802192
:1029700002F02AFCFB681868642302930123019388
:1029800007F11703009301230122802102F01AFDB1
:10299000FB7D43F00403DBB2FB7501233B76FB7D3B
:1029A0007B76FB68186807F1180264230093022302
:1029B000802102F009FC0023FB6108E0FA68FB6952
:1029C0005B0013440022DA80FB690133FB61FB6981
:1029D000072BF3DD00BF00BF2037BD4680BD00BF21
:1029E0000000804520BCBE4B80B584B000AF78604D
:1029F0000B46FB7013463B807B681B79013307EE67
:102A0000903AF8EEE77A9FED117A27EE877ADFEDBC
:102A1000106AC7EE267AC7ED037A3B8807EE903A34
:102A2000F8EEE76A97ED037AC6EE877AFCEEE77A6E
:102A300017EE903A7B817B89F9780022786800F064
:102A400009F800BF1037BD4680BD00BF002474499F
:102A500020BCBE4B80B588B002AFF8600846114676
:102A60001A460346FB720B463B811346FB80FB7AFA
:102A70009B00DBB20633DBB23B743B89DBB27B7479
:102A80003B891B0A9BB2DBB2BB74FB88DBB2FB74D5
:102A9000FB881B0A9BB2DBB23B75FB68186807F129
:102AA0001002642300930523802102F08DFB00BFF8
:102AB0001837BD4680BD80B487B000AF786187ED20
:102AC000040AC7ED030A87ED021AC7ED011A7B69F4
:102AD0003A691A607B69FA685A607B69BA68DA6099
:102AE0007B697A681A617B694FF00002DA617B6961
:102AF0004FF000021A627B694FF000025A627B6954
:102B00004FF000025A617B694FF000029A6100BFEA
:102B10001C37BD465DF8047B704780B48BB000AFB6
:102B2000F86087ED020AC7ED010A87ED001A97EDFC
:102B3000027AD7ED017A77EE677AC7ED067AFB68FD
:102B4000D3ED007A97ED067A67EE277AC7ED057A1E
:102B5000FB68D3ED027A97ED027A67EE277AC7ED2C
:102B6000097AFB68D3ED067A97ED097AB4EEE77A35
:102B7000F1EE10FA03DDFB689B697B620CE0FB68F9
:102B8000D3ED057A97ED097AB4EEE77AF1EE10FA13
:102B900002D5FB685B697B62FB6893ED077AD7ED32
:102BA000007AF6EE006A67EEA66AFB68D3ED017A5A
:102BB00066EEA76AFB6893ED086AD7ED067A76EEB3
:102BC000277A66EEA77A77EE277AFB68C3ED077A55
:102BD000FB6893ED047AD7ED057A37EE677AD7ED87
:102BE000097A77EE677AF5EEC07AF1EE10FA09DD30
:102BF000FB6893ED047AD7ED057A77EE677AC7ED37
:102C0000077A02E04FF00003FB61FB6893ED037A63
:102C1000D7ED057A37EE677AD7ED097A77EE677ADE
:102C2000F5EEC07AF1EE10FA09D5FB6893ED037A60
:102C3000D7ED057A77EE677AC7ED087A02E04FF0B4
:102C400000033B62FB68D3ED077A97ED077AB4EE99
:102C5000E77AF1EE10FA03D5FB68FA69DA610CE065
:102C6000FB68D3ED077A97ED087AB4EEE77AF1EED8
:102C700010FA02DDFB683A6ADA6197ED057AD7ED62
:102C8000097A37EE277AFB68D3ED077A77EE277A51
:102C9000FB68C3ED097AFB6893ED097AFB68D3ED15
:102CA000047AB4EEE77AF1EE10FA04DDFB681A69F3
:102CB000FB685A620EE0FB6893ED097AFB68D3ED7E
:102CC000037AB4EEE77AF1EE10FA03D5FB68DA681E
:102CD000FB685A62FB68BA691A62FB685B6A07EEB6
:102CE000903AB0EE670A2C37BD465DF8047B70471A
:102CF00080B485B000AFF860B9607A60FB68074ABD
:102D00001A60BB68064A1A607B6880221A6000BF9E
:102D10001437BD465DF8047B704700BF6801002092
:102D2000BC01002080B500AF0B4B1B6903F0010311
:102D3000002B04D0094B5B6A094A136007E0074B7C
:102D40005A6A074B1B68D31A5B08064A13600120B6
:102D500002F0D2F800BF80BD00000240000C00402D
:102D6000600800207008002080B500AF0B4B1B6985
:102D700003F00203002B04D0094B5B6A094A53603D
:102D800007E0074B5A6A074B5B68D31A5B08064A91
:102D90005360022002F0B0F800BF80BD0000024086
:102DA000000C0040600800207008002080B500AFD3
:102DB000234B5B6903F04003002B1CD0214B1B69A4
:102DC00003F04003002B04D01F4B5B6A1F4A936043
:102DD0000DE01C4B1B6903F04003002B07D11A4B7D
:102DE0005A6A1A4B9B68D31A5B08194A93604020B1
:102DF00002F082F821E0124B5B6903F08003002BA4
:102E00001BD0104B1B6903F08003002B04D00E4B2A
:102E10005B6A0E4AD3600DE00A4B1B6903F0800326
:102E2000002B07D1084B5A6A084BDB68D31A5B08A2
:102E3000074AD360802002F05FF800BF80BD00BF6A
:102E4000003C014000040240000C004060080020EB
:102E500070080020B0B5BAB002AF01F035FD00F047
:102E60004FFF01F033F900F0B5FF00F0E1FF01F092
:102E70000DF801F041F801F075F801F0A9F801F042
:102E8000D1F801F0F9F800233B60BE4B1B6CBD4A42
:102E900043F008031364BB4B1B6C03F008033B6057
:102EA0003B6803F05FFC0346B74AA2FB03239B0C7D
:102EB000B64A013B9362B54B01221A60B34B4FF007
:102EC000FF32DA62B14B6FF001025A62B04B07F188
:102ED000C0041D460FCD0FC495E8070084E8070025
:102EE00007F1C0030021184605F05BF90346A94A23
:102EF0001360A94B07F1A4041D460FCD0FC495E83C
:102F0000070084E8070007F1A4030021184605F034
:102F100048F90346A14A1360A14B07F188041D46F6
:102F20000FCD0FC495E8070084E8070007F1880378
:102F30000021184605F035F903469A4A13609A4B6A
:102F400007F16C041D460FCD0FC495E8070084E817
:102F5000070007F16C030021184605F022F903462B
:102F6000924A1360924B07F150041D460FCD0FC4D7
:102F700095E8070084E8070007F150030021184690
:102F800005F00FF903468B4A13608B4B07F13404AD
:102F90001D460FCD0FC495E8070084E8070007F130
:102FA00034030021184605F0FCF80346834A1360F9
:102FB000834B07F118041D460FCD0FC495E8070099
:102FC00084E8070007F118030021184605F0E9F826
:102FD00003467C4A136020230193102300930823A7
:102FE000794A7A497A48FDF74FFF0346002B04D10E
:102FF00001220421774801F04BFF322276497748BD
:10300000FFF738FC002200217448FFF7EDFC002296
:1030100001217248FFF7E8FC002202216F48FFF708
:10302000E3FC002203216D48FFF7DEFC4FF47A70C9
:1030300001F08CFC4FF4FA7200216848FFF7D4FCD1
:103040004FF4FA7201216548FFF7CEFC4FF4FA7293
:1030500002216248FFF7C8FC4FF4FA7203215F486F
:10306000FFF7C2FC4FF47A7001F070FC5C4B012258
:103070001A700023C7F8DC3034E0D7F8DC201346A0
:103080005B001344DB00574A1344DFED570AB2EEEE
:10309000040A01211846FFF745FBD7F8DC20134648
:1030A0005B001344DB00514A1344DFED510A9FEDEE
:1030B000510A01211846FFF735FBD7F8DC201346EB
:1030C0005B001344DB004C4A1344DFED4C0AB1EEC5
:1030D000040A01211846FFF725FBD7F8DC3001333D
:1030E000C7F8DC30D7F8DC30022BC6DD0023C7F888
:1030F000DC3014E0D7F8DC2013465B001344DB001F
:103100003F4A1344DFED3A0AB1EE0E0A0121184698
:10311000FFF708FBD7F8DC300133C7F8DC30D7F80D
:10312000DC30032BE6DD374A07F1100392E8030099
:1031300083E80300344A3B1D07CA83E807003A1DB1
:1031400007F110031946B2EE040A3048FEF780FA80
:10315000DFED2F1A9FED2F1ADFED280A9FED2E0AC3
:103160002E48FFF7A8FCDFED2A1A9FED2A1ADFEDA3
:103170002C0A9FED2C0A2C48FFF79DFC05F00AF85D
:1031800000BFFDE70038024083DE1B43000C004017
:1031900040AF00082C06002070AF00083006002069
:1031A0009CAF000834060020CCAF00083806002091
:1031B000F0AF00083C06002014B0000840060020D4
:1031C00040B000084406002000040240140500201E
:1031D0004806002000080240BC03002080060020B2
:1031E00090080020980600206F12833CE006002023
:1031F0000BD7233C0000004228070020CDCCCC3D5B
:10320000700700205CB0000864B00008D007002000
:103210001F858B401F858BC0A4709D3F1008002028
:103220000AD7A33D713D8A3F3808002080B586B09B
:1032300000AF78602E48FDF76BFF2D4BD3ED047A7D
:103240009FED2C7A67EE877A9FED2B7A77EE877A5F
:10325000274BC3ED047A264BD3ED057A9FED277AF1
:1032600067EE877A9FED267A77EE877A204BC3ED5B
:10327000057A1F4BD3ED067A9FED227A67EE877AA7
:103280009FED217A77EEC77A194BC3ED067A0023BA
:103290007B611EE07A6913465B001344DB001B4A26
:1032A0001A4413497B6904339B000B44D3ED007A25
:1032B000B0EE670A1046FFF7A5FAF0EE407A7B6998
:1032C0009B0018333B44103BC3ED007A7B6901330C
:1032D0007B617B69022BDDDD07F108039FED0C0AA2
:1032E00019460C48FEF7E6FB102004F0A6FFA1E704
:1032F0004806002096B27C3F97902F3F0E4F7F3FAD
:103300008716593D5BB17F3F355E9A3E9806002097
:103310006F12833CD00700202DE9B04F2DED028BBA
:1033200088B000AF78607E48FDF764FF7D4B1B6876
:1033300001337C4A13600023FB6129E07A4AFB6970
:103340009B00134493ED007A764B1B68013B07EE1C
:10335000903AF8EE677A27EE277A714AFB690633CE
:103360009B0013440433D3ED007A77EE276A6D4B4C
:103370001B6807EE903AB8EE677AC6EE877A6A4A1B
:10338000FB699B001344C3ED007AFB690133FB61C9
:10339000FB69022BD2DD0023BB611FE0BA69134633
:1033A0005B001344DB00614A1A445D49BB69063384
:1033B0009B000B440433D3ED007AB0EE670A10464D
:1033C000FFF720FAF0EE407ABB699B0020333B44C4
:1033D000143BC3ED007ABB690133BB61BB69022BAF
:1033E000DCDD07F10C039FED520A19465148FEF748
:1033F00073F9514BD3ED007A9FED507A67EE877ADF
:1034000017EE900AFDF748F804460D464C4B1B6832
:103410001846FDF741F880468946464B1B6818461A
:10342000FDF73AF802460B4643EC102B06F070F914
:103430005BEC10AB3B691846FDF72EF802460B46D5
:1034400050465946FDF780F802460B4692469B4689
:10345000384B1B681846FDF71FF802460B4643EC35
:10346000102B06F001F9B0EE408AF0EE608A7B691D
:103470001846FDF711F802460B4651EC180BFDF704
:1034800063F802460B4650465946FCF7A7FE024633
:103490000B46104619461EA3D3E90023FDF754F846
:1034A00002460B4692469B46224B5B681846FCF749
:1034B000F3FF02460B4643EC102B06F0D5F853EC15
:1034C000102B50465946FDF769F902460B46404617
:1034D0004946FCF783FE02460B46104619460EA3EA
:1034E000D3E90023FDF730F802460B462046294673
:1034F000FCF774FE02460B4610461946FDF7FCFA2F
:1035000003460F4A13600A2004F097FE0BE700BF42
:1035100000000060E17A843F0000008014AEEF3FBD
:10352000480600209408002098080020E0060020AB
:103530000BD7233CD00700200C0800200AD7233CDF
:1035400008080020B0B58EB000AF78608C48FDF759
:10355000A3FE8B4B93ED0A7A894BD3ED0A7A27EEC3
:10356000277A874BD3ED0B6A854BD3ED0B7A66EE4A
:10357000A77A37EE277A824BD3ED0C6A804BD3EDD6
:103580000C7A66EEA77A77EE277A17EE900AFCF7A8
:1035900083FF02460B4643EC102B06F037F853EC42
:1035A000102B4FF000007749FDF7F8F802460B4664
:1035B00010461946FDF7A0FA03463B63704B93EDA6
:1035C0000A7AD7ED0C7A67EE277A6D4BC3ED0A7A4B
:1035D0006B4B93ED0B7AD7ED0C7A67EE277A684B3D
:1035E000C3ED0B7A664B93ED0C7AD7ED0C7A67EE50
:1035F000277A634BC3ED0C7A00237B631EE07A6B62
:1036000013465B001344DB005F4A1A445C497B6B42
:103610000A339B000B44D3ED007AB0EE670A1046E4
:10362000FFF7F0F8F0EE407A7B6B9B0038333B44B9
:103630002C3BC3ED007A7B6B01337B637B6B022BEE
:10364000DDDD524B1B681846FCF726FF02460B4691
:1036500043EC102B06F05CF853EC102B1046194687
:10366000FDF74AFA0346FB62484B1B681846FCF715
:1036700013FF02460B4643EC102B05F0F5FF53EC0D
:10368000102B10461946FDF737FA0346BB623F4B35
:103690005B681846FCF700FF02460B4643EC102B14
:1036A00006F036F853EC102B10461946FDF724FAB5
:1036B00003467B62354B5B681846FCF7EDFE02461D
:1036C0000B4643EC102B05F0CFFF53EC102B1046AC
:1036D0001946FDF711FA03463B6297ED037AD7EDE1
:1036E000087A27EE277AD7ED046AD7ED097A66EED5
:1036F000A76AD7ED0B7A66EEA77A37EE277AD7ED71
:10370000056AD7ED097A66EEA76AD7ED0A7A66EE02
:10371000A77A77EE277AC7ED077A97ED047AD7ED87
:103720000A7A27EE277AD7ED056AD7ED0B7A66EE8F
:10373000A77A77EE677AC7ED067AB869FCF7ACFE30
:1037400004460D46F869FCF7A7FE02460B4643EC1B
:10375000112B45EC104B05F057FF53EC102B104686
:103760001946FDF7C9F9034607EE903AF1EE677A7C
:10377000074BC3ED007A642004F05FFDE6E600BF6E
:10378000480600200000F03F28070020D007002056
:103790000C08002080B582B000AF78609C4BDB68DD
:1037A00007EE903AF8EE677AB0EE670A9948FFF7AD
:1037B00029F8F0EE407A9FED987A67EE877AB7EEB7
:1037C000007A77EEC77A954BC3ED007A904B5B6831
:1037D00007EE903AF8EE677AB0EE670A9048FFF786
:1037E00011F8F0EE407A9FED8F7A67EE877AB0EEAF
:1037F000087A77EEC77A8C4BC3ED007A844B9B68CE
:1038000007EE903AF8EE677AB0EE670A8748FEF75F
:10381000F9FFF0EE407A9FED867A67EE877AB0EE98
:10382000087A77EE877A834BC3ED007A784B1B6872
:1038300007EE903AF8EE677AB0EE670A7E48FEF738
:10384000E1FFF0EE407A9FED777A67EE877AB0EE8F
:10385000087A77EEC77A794BC3ED007A724BD3EDD5
:10386000007A9FED777AF4EEC77AF1EE10FA0DDB6D
:103870006D4BD3ED007A9FED737AF4EEC77AF1EEDB
:1038800010FA03D8684B4FF000021A60694BD3ED71
:10389000007A9FED6B7AF4EEC77AF1EE10FA0DDB49
:1038A000644BD3ED007A9FED677AF4EEC77AF1EEC0
:1038B00010FA03D85F4B4FF000021A605F4BD3ED54
:1038C000007A9FED5F7AF4EEC77AF1EE10FA0DDB25
:1038D000584BD3ED007A9FED5B7AF4EEC77AF1EEA8
:1038E00010FA03D8554B4FF000021A604B4BD3ED42
:1038F000007AF5EEC07AF1EE10FA04D5474B4FF09E
:1039000000021A600DE0454BD3ED007AB7EE007A65
:10391000F4EEC77AF1EE10FA03DD404B4FF07E5221
:103920001A60414BD3ED007ABFEE007AF4EEC77A0D
:10393000F1EE10FA03D53C4B434A1A600DE03A4BC6
:10394000D3ED007AB7EE007AF4EEC77AF1EE10FA12
:1039500003DD354B4FF07E521A60364BD3ED007AC3
:10396000BFEE007AF4EEC77AF1EE10FA03D5314BD0
:10397000354A1A600DE02F4BD3ED007AB7EE007A8E
:10398000F4EEC77AF1EE10FA03DD2A4B4FF07E52C7
:103990001A602A4BD3ED007ABFEE007AF4EEC77AB4
:1039A000F1EE10FA03D5254B274A1A600DE0234BA0
:1039B000D3ED007AB7EE007AF4EEC77AF1EE10FAA2
:1039C00003DD1E4B4FF07E521A60174BD3ED007A89
:1039D0009FED1E7A67EE877A134BC3ED007A154B85
:1039E000D3ED007A9FED197A67EE877A114BC3ED1C
:1039F000007A124BD3ED007A9FED157A67EE877A45
:103A00000E4BC3ED007A0A2004F017FCC6E600BF97
:103A100070080020700700206F12833A8008002091
:103A2000880700206F12033B84080020A0070020B5
:103A30006F1203BB88080020B80700208C08002004
:103A4000CDCC4CBDCDCC4C3D000080BFC2B8323E89
:103A5000F366DF3E80B584B000AF78600023FB6082
:103A60000DE0FB68D9B2094AFB685B001344DB88B0
:103A70001A460648FEF7B8FFFB680133FB60FB6897
:103A8000032BEEDD042004F0D8FBE7E780060020DE
:103A900080B588B000AF7860834BD3ED007A9FED9E
:103AA000837AF4EEC77AF1EE10FA03D5804B002248
:103AB0001A7002E07E4B01221A707B4BD3ED007A24
:103AC0009FED7C7A67EE877AFCEEE77A17EE903A04
:103AD0009BB2FB83B7F91E30B3F5167F03DD4FF4BD
:103AE0001673FB8305E0B7F91E30002B01DA0023C3
:103AF000FB83714BD3ED007A704B93ED007A9FED11
:103B0000701AF0EE470AB0EE670A6E48FFF705F844
:103B100087ED040A6C4BD3ED007A684B93ED017A84
:103B20009FED671AF0EE470AB0EE670A6748FEF7A6
:103B3000F4FF87ED030A664BD3ED007A97ED047A24
:103B400077EE677A9FED637A67EE877A9FED627A08
:103B500067EE877AFDEEE77A17EE903ABB835C4B0F
:103B6000D3ED067A97ED037A77EE677A9FED597A6F
:103B700067EE877A9FED587A67EE877AFDEEE77AEF
:103B800017EE903A7B83B7F91C30C82B02DDC823AF
:103B9000BB8307E0B7F91C3013F1C80F02DA4FF608
:103BA0003873BB83B7F91A30C82B02DDC8237B8377
:103BB00007E0B7F91A3013F1C80F02DA4FF638737D
:103BC0007B833B4B1B78012B59D1FA8BBB8B134466
:103BD0009AB27B8B13449BB203F214539AB23F4BBD
:103BE000DA80FA8BBB8BD31A9AB27B8B13449BB2CD
:103BF00003F214539AB2394B1A81FA8BBB8BD31A46
:103C00009AB27B8BD31A9BB203F214539AB2334B02
:103C10005A81FA8BBB8B13449AB27B8BD31A9BB21B
:103C200003F214539AB22D4B9A8100237B6122E058
:103C30002A4A7B695B001344DB88B3F5E16F07D93F
:103C4000264A7B695B0013444FF4E162DA800FE09F
:103C5000224A7B695B001344DB8840F21352934293
:103C600006D81E4A7B695B00134440F21452DA8086
:103C70007B6901337B617B69032BD9DD0FE0174B37
:103C80004FF4FA72DA80154B4FF4FA721A81134B23
:103C90004FF4FA725A81114B4FF4FA729A81042050
:103CA00004F0CBFAF8E600BF80080020CDCCCC3D74
:103CB000900800200000164484080020D00700204F
:103CC0006F12833B1008002088080020380800206D
:103CD000E0060020000000000000C842800600202E
:103CE00080B582B000AF78600821044801F0E9F89F
:103CF0004FF4FA7004F0A1FA00BFF5E700080240A3
:103D000080B594B000AF07F120033022002118469F
:103D100007F06AF807F10C0300221A605A609A60F3
:103D2000DA601A610023BB60284B1B6C274A43F002
:103D300080531364254B1B6C03F08053BB60BB683E
:103D400000237B60224B1B68214A43F480431360AD
:103D50001F4B1B6803F480437B607B6801233B623D
:103D60004FF480337B620223BB634FF48003FB6319
:103D700008233B64A8237B640223BB640423FB6405
:103D800007F12003184602F089F80346002B01D002
:103D900000F078FA0F23FB6002233B6100237B6174
:103DA0004FF4A053BB614FF48053FB6107F10C0348
:103DB0000521184602F0E0FA0346002B01D000F07E
:103DC00061FA00BF5037BD4680BD00BF00380240D9
:103DD0000070004080B500AF124B134A1A60114BBF
:103DE000124A5A600F4B00229A600E4B0022DA6092
:103DF0000C4B4FF480421A610A4B00225A61094B66
:103E000000229A61074B0022DA61064B00221A62F7
:103E1000044801F095F80346002B01D000F032FA77
:103E200000BF80BDBC03002000540040A0860100FC
:103E300080B500AF124B134A1A60114B124A5A60F8
:103E40000F4B00229A600E4B0022DA600C4B4FF4AD
:103E500080421A610A4B00225A61094B00229A6182
:103E6000074B0022DA61064B00221A62044801F077
:103E700067F80346002B01D000F004FA00BF80BDB4
:103E800010040020005C0040A086010080B500AF57
:103E9000174B184A1A60164B4FF482725A60144B33
:103EA00000229A60124B0022DA60114B00221A6144
:103EB0000F4B00225A610E4B4FF400729A610C4B6B
:103EC0000022DA610A4B00221A62094B00225A6270
:103ED000074B00229A62064B0A22DA62044802F07B
:103EE0009BFC0346002B01D000F0CCF900BF80BD45
:103EF000640400200030014080B500AF174B184A21
:103F00001A60164B4FF482725A60144B00229A606A
:103F1000124B0022DA60114B00221A610F4B002273
:103F20005A610E4B4FF400729A610C4B0022DA6119
:103F30000A4B00221A62094B00225A62074B0022E8
:103F40009A62064B0A22DA62044802F065FC0346D4
:103F5000002B01D000F096F900BF80BDBC0400200A
:103F60000038004080B500AF174B184A1A60164B56
:103F70004FF482725A60144B00229A60124B002256
:103F8000DA60114B00221A610F4B00225A610E4B6E
:103F90004FF400729A610C4B0022DA610A4B002246
:103FA0001A62094B00225A62074B00229A62064BA2
:103FB0000A22DA62044802F02FFC0346002B01D0EB
:103FC00000F060F900BF80BD14050020003C0040F7
:103FD00080B500AF114B124A1A60104B4FF4E1321A
:103FE0005A600E4B00229A600C4B0022DA600B4B99
:103FF00000221A61094B0C225A61084B00229A6177
:10400000064B0022DA61054803F08EFB0346002BC5
:1040100001D000F037F900BF80BD00BF6C05002063
:104020000010014080B500AF114B124A1A60104BCE
:104030004FF4E1325A600E4B00229A600C4B002282
:10404000DA600B4B00221A61094B0C225A61084BB3
:1040500000229A61064B0022DA61054803F064FBF6
:104060000346002B01D000F00DF900BF80BD00BF5A
:10407000AC0500200044004080B500AF114B124A4F
:104080001A60104B4FF4E1325A600E4B00229A60D6
:104090000C4B0022DA600B4B00221A61094B0C22F8
:1040A0005A61084B00229A61064B0022DA610548EA
:1040B00003F03AFB0346002B01D000F0E3F800BF09
:1040C00080BD00BFEC0500200048004080B58AB0EC
:1040D00000AF07F1140300221A605A609A60DA6098
:1040E0001A6100233B61594B1B6B584A43F0040390
:1040F0001363564B1B6B03F004033B613B690023C6
:10410000FB60524B1B6B514A43F0800313634F4BD0
:104110001B6B03F08003FB60FB680023BB604B4B11
:104120001B6B4A4A43F001031363484B1B6B03F0BC
:104130000103BB60BB6800237B60444B1B6B434A9D
:1041400043F002031363414B1B6B03F002037B60DC
:104150007B68002240F27F113D4800F099FE00226A
:1041600010213C4800F094FE002238213A4800F02B
:104170008FFE4EF280037B610023BB610023FB6155
:1041800007F114031946324800F0E6FC40F27F13B1
:104190007B610123BB610023FB6100233B6207F1CC
:1041A000140319462A4800F0D7FC03237B612B4BEC
:1041B000BB610023FB6107F114031946254800F099
:1041C000CBFC10237B610123BB610023FB61002337
:1041D0003B6207F1140319461E4800F0BDFC38236A
:1041E0007B610123BB610023FB6100233B6207F17C
:1041F00014031946184800F0AFFCC0237B61174B2D
:10420000BB610023FB6107F114031946124800F05B
:10421000A3FC00220521062000F074FC062000F01B
:104220008DFC00220521072000F06CFC072000F027
:1042300085FC00220521172000F064FC172000F007
:104240007DFC00BF2837BD4680BD00BF003802405E
:10425000000802400000024000040240000031104B
:1042600080B582B000AF78607B681B68044A9342D7
:1042700001D100F04BFB00BF0837BD4680BD00BF39
:104280000010004080B400AF00BFBD465DF8047B65
:104290007047000080B582B000AF00237B60124BF6
:1042A0005B6C114A43F4804353640F4B5B6C03F423
:1042B00080437B607B6800233B600B4B1B6C0A4A8E
:1042C00043F080531364084B1B6C03F080533B6036
:1042D0003B6800220F216FF0010000F013FC00BFCB
:1042E0000837BD4680BD00BF0038024080B58CB0A5
:1042F00000AF786007F11C0300221A605A609A60D0
:10430000DA601A617B681B68424A93422DD1002310
:10431000BB61414B1B6B404A43F0020313633E4BAE
:104320001B6B03F00203BB61BB694FF44073FB617D
:1043300012233B6201237B620323BB620423FB62E3
:1043400007F11C031946354800F006FC00237B6189
:10435000314B1B6C304A43F4001313642E4B1B6C1F
:1043600003F400137B617B6950E07B681B682C4A77
:1043700093424BD100233B61274B1B6B264A43F0F2
:1043800004031363244B1B6B03F004033B613B6981
:104390000023FB60204B1B6B1F4A43F00103136398
:1043A0001D4B1B6B03F00103FB60FB684FF40073B4
:1043B000FB6112233B6201237B620323BB62042364
:1043C000FB6207F11C031946164800F0C5FB4FF4C9
:1043D0008073FB6112233B6201237B620323BB6278
:1043E0000423FB6207F11C0319460F4800F0B4FBDD
:1043F0000023BB60084B1B6C074A43F400031364A3
:10440000054B1B6C03F40003BB60BB6800BF303777
:10441000BD4680BD00540040003802400004024008
:10442000005C0040000802400000024080B58EB0F1
:1044300000AF786007F1240300221A605A609A6086
:10444000DA601A617B681B684C4A93422CD10023C6
:104450003B624B4B5B6C4A4A43F480535364484B7A
:104460005B6C03F480533B623B6A0023FB61444B6B
:104470001B6B434A43F001031363414B1B6B03F077
:104480000103FB61FB69E0237B620223BB62002323
:10449000FB6203233B6305237B6307F12403194677
:1044A000384800F059FB64E07B681B68364A934249
:1044B0002DD10023BB61324B1B6C314A43F4804346
:1044C00013642F4B1B6C03F48043BB61BB69002357
:1044D0007B612B4B1B6B2A4A43F002031363284B6F
:1044E0001B6B03F002037B617B694FF460437B62CB
:1044F0000223BB620023FB6203233B6305237B6330
:1045000007F124031946214800F026FB31E07B68BF
:104510001B681F4A93422CD100233B61184B1B6C34
:10452000174A43F400431364154B1B6C03F4004318
:104530003B613B690023FB60114B1B6B104A43F04E
:10454000040313630E4B1B6B03F00403FB60FB6857
:104550004FF4E0537B620223BB620023FB62032320
:104560003B6306237B6307F124031946094800F0E7
:10457000F3FA00BF3837BD4680BD00BF00300140B0
:1045800000380240000002400038004000040240B1
:10459000003C00400008024080B485B000AF786065
:1045A0007B681B680B4A93420DD10023FB600A4BCA
:1045B0001B6C094A43F008031364074B1B6C03F0A0
:1045C0000803FB60FB6800BF1437BD465DF8047B41
:1045D000704700BF000C00400038024080B58EB02C
:1045E00000AF786007F1240300221A605A609A60D5
:1045F000DA601A617B681B684C4A93422DD1002314
:104600003B624B4B5B6C4A4A43F010035364484B8C
:104610005B6C03F010033B623B6A0023FB61444B7D
:104620001B6B434A43F001031363414B1B6B03F0C5
:104630000103FB61FB694FF4C0637B620223BB6231
:104640000123FB6203233B6307237B6307F12403FE
:104650001946384800F080FA63E07B681B68364AE8
:1046600093422CD10023BB61314B1B6C304A43F485
:10467000003313642E4B1B6C03F40033BB61BB6926
:1046800000237B612A4B1B6B294A43F00103136310
:10469000274B1B6B03F001037B617B690C237B625F
:1046A0000223BB620123FB6203233B6307237B637B
:1046B00007F1240319461F4800F04EFA31E07B68E9
:1046C0001B681E4A93422CD100233B61184B1B6C84
:1046D000174A43F480231364154B1B6C03F48023A7
:1046E0003B613B690023FB60114B1B6B104A43F09D
:1046F000020313630E4B1B6B03F00203FB60FB68AA
:104700004FF440637B620223BB620123FB620323FD
:104710003B6307237B6307F124031946084800F035
:104720001BFA00BF3837BD4680BD00BF00100140F6
:1047300000380240000002400044004000480040B1
:104740000004024080B58CB000AF78600023FB62AB
:104750000023BB6200227968362000F0D3F93620AE
:1047600000F0ECF90023FB601F4B1B6C1E4A43F06A
:10477000100313641C4B1B6C03F01003FB60FB68FD
:1047800007F1100207F114031146184602F012F85F
:1047900001F0E8FF03465B00FB62FB6A134AA2FBE1
:1047A00003239B0C013BBB62114B124A1A60104B56
:1047B00040F2E732DA600E4ABB6A53600C4B0022CB
:1047C0001A610B4B00229A60094802F079FD0346FA
:1047D000002B04D1064802F09EFD034600E00123B1
:1047E00018463037BD4680BD0038024083DE1B438B
:1047F000A40800200010004080B400AF00BFBD46F8
:104800005DF8047B704780B400AF00BFFDE780B463
:1048100000AF00BFFDE780B400AF00BFFDE780B48C
:1048200000AF00BFFDE780B400AF00BFBD465DF83C
:10483000047B704780B500AF024802F090FD00BFD6
:1048400080BD00BFA408002080B400AF084BD3F89F
:104850008830074A43F47003C2F88830044B4FF0A5
:1048600000629A6000BFBD465DF8047B704700BFE0
:1048700000ED00E0DFF834D0002103E00C4B5B5882
:10488000435004310B480C4B42189A42F6D30B4A62
:1048900002E0002342F8043B094B9A42F9D3FFF7A8
:1048A000D3FF06F0AFFAFEF7D5FA704700000220FA
:1048B000ECB20008000000204C0100204C01002058
:1048C00004490020FEE7000080B500AF0E4B1B68D6
:1048D0000D4A43F4007313600B4B1B680A4A43F400
:1048E00080631360084B1B68074A43F480731360AE
:1048F000032000F0FCF80020FFF724FFFFF7CAFCBC
:104900000023184680BD00BF003C024080B400AFC9
:10491000064B1B781A46064B1B681344044A136067
:1049200000BFBD465DF8047B704700BF0800002053
:10493000E408002080B400AF034B1B681846BD4656
:104940005DF8047B704700BFE408002080B584B0A8
:1049500000AF7860FFF7EEFFB8607B68FB60FB6834
:10496000B3F1FF3F05D00A4B1B781A46FB6813448E
:10497000FB6000BFFFF7DEFF0246BB68D31AFA6890
:104980009A42F7D800BF00BF1037BD4680BD00BFB8
:104990000800002080B485B000AF78607B6803F029
:1049A0000703FB600C4BDB68BB60BA684FF6FF0384
:1049B0001340BB60FB681A02BB68134343F0BF633C
:1049C00043F40033BB60044ABB68D36000BF1437B4
:1049D000BD465DF8047B704700ED00E080B400AF99
:1049E000044BDB681B0A03F007031846BD465DF85D
:1049F000047B704700ED00E080B483B000AF034655
:104A0000FB7197F90730002B0BDBFB7903F01F02DA
:104A1000074997F907305B09012000FA02F241F8D3
:104A2000232000BF0C37BD465DF8047B704700BFF4
:104A300000E100E080B483B000AF03463960FB7151
:104A400097F90730002B0ADB3B68DAB20C4997F97B
:104A500007301201D2B20B4483F800230AE03B680E
:104A6000DAB20849FB7903F00F03043B1201D2B21A
:104A70000B441A7600BF0C37BD465DF8047B7047C7
:104A800000E100E000ED00E080B489B000AFF86024
:104A9000B9607A60FB6803F00703FB61FB69C3F14F
:104AA0000703042B28BF0423BB61FB690433062BD7
:104AB00002D9FB69033B00E000237B614FF0FF322A
:104AC000BB6902FA03F3DA43BB681A407B699A4078
:104AD0004FF0FF317B6901FA03F3D9437B680B4048
:104AE000134318462437BD465DF8047B704780B5F4
:104AF00082B000AF78607868FFF74CFF00BF0837DE
:104B0000BD4680BD80B586B000AF0346B9607A600F
:104B1000FB7300237B61FFF761FF78617A68B968F6
:104B20007869FFF7B1FF024697F90F301146184632
:104B3000FFF780FF00BF1837BD4680BD80B582B04B
:104B400000AF0346FB7197F907301846FFF754FF93
:104B500000BF0837BD4680BD80B489B000AF786023
:104B6000396000237B6100233B610023BB6100238C
:104B7000FB616BE10122FB6902FA03F37B613B6895
:104B80001B687A6913403B613A697B699A4240F03D
:104B90005A813B685B68012B0BD03B685B68022B3A
:104BA00007D03B685B68112B03D03B685B68122B16
:104BB00030D17B689B68BB61FB695B00032202FA12
:104BC00003F3DB43BA691340BB613B68DA68FB69F6
:104BD0005B0002FA03F3BA691343BB617B68BA69ED
:104BE0009A607B685B68BB610122FB6902FA03F390
:104BF000DB43BA691340BB613B685B681B0903F088
:104C00000102FB6902FA03F3BA691343BB617B68D3
:104C1000BA695A607B68DB68BB61FB695B00032291
:104C200002FA03F3DB43BA691340BB613B689A683D
:104C3000FB695B0002FA03F3BA691343BB617B684B
:104C4000BA69DA603B685B68022B03D03B685B683B
:104C5000122B23D1FB69DA087B68083253F8223023
:104C6000BB61FB6903F007039B000F2202FA03F309
:104C7000DB43BA691340BB613B681A69FB6903F007
:104C800007039B0002FA03F3BA691343BB61FB6994
:104C9000DA087B680832B96943F822107B681B6820
:104CA000BB61FB695B00032202FA03F3DB43BA69D1
:104CB0001340BB613B685B6803F00302FB695B0068
:104CC00002FA03F3BA691343BB617B68BA691A60DD
:104CD0003B685B6803F08053002B00F0B480002336
:104CE000FB60604B5B6C5F4A43F4804353645D4BF5
:104CF0005B6C03F48043FB60FB685B4AFB699B08C9
:104D0000023352F82330BB61FB6903F003039B00BD
:104D10000F2202FA03F3DB43BA691340BB617B68DD
:104D2000524A93422BD07B68514A934225D07B68EC
:104D3000504A93421FD07B684F4A934219D07B68F8
:104D40004E4A934213D07B684D4A93420DD07B6804
:104D50004C4A934207D07B684B4A934201D10723C8
:104D60000EE008230CE006230AE0052308E00423F4
:104D700006E0032304E0022302E0012300E0002315
:104D8000FA6902F0030292009340BA691343BB61CF
:104D90003549FB699B080233BA6941F823203B4B34
:104DA0001B68BB613B69DB43BA691340BB613B686D
:104DB0005B6803F48033002B03D0BA693B6913436B
:104DC000BB61324ABB691360304B5B68BB613B69B6
:104DD000DB43BA691340BB613B685B6803F4003393
:104DE000002B03D0BA693B691343BB61274ABB69F7
:104DF0005360264B9B68BB613B69DB43BA69134038
:104E0000BB613B685B6803F48013002B03D0BA6975
:104E10003B691343BB611D4ABB6993601B4BDB6855
:104E2000BB613B69DB43BA691340BB613B685B68AC
:104E300003F40013002B03D0BA693B691343BB6131
:104E4000124ABB69D360FB690133FB61FB690F2B1D
:104E50007FF690AE00BF00BF2437BD465DF8047BEF
:104E6000704700BF00380240003801400000024097
:104E70000004024000080240000C02400010024002
:104E80000014024000180240001C0240003C014097
:104E900080B483B000AF78600B467B8013467B7094
:104EA0007B78002B03D07A887B689A6103E07B884B
:104EB0001A047B689A6100BF0C37BD465DF8047B1D
:104EC000704780B483B000AF78600B467B807B680E
:104ED0005A697B881A407B889A4204D17B881A04DD
:104EE0007B689A6102E07A887B689A6100BF0C3720
:104EF000BD465DF8047B704780B582B000AF0346C5
:104F0000FB80084B5A69FB881340002B06D0054AEA
:104F1000FB885361FB88184600F006F800BF08378D
:104F2000BD4680BD003C014080B483B000AF034665
:104F3000FB8000BF0C37BD465DF8047B7047000066
:104F400080B584B000AF78607B68002B01D101236D
:104F50002BE17B6893F83D30DBB2002B06D17B68F8
:104F6000002283F83C207868FFF7C0F97B68242290
:104F700083F83D207B681B681A687B681B6822F0F9
:104F800001021A607B681B681A687B681B6842F420
:104F900000421A607B681B681A687B681B6822F4F1
:104FA00000421A6001F0DEFBF8607B685B68814AB2
:104FB000934207D8FB68804A934294BF01230023A1
:104FC000DBB206E0FB687D4A934294BF01230023D5
:104FD000DBB2002B01D00123E7E0FB68784AA2FB9B
:104FE00003239B0CBB607B681B685B6823F03F015D
:104FF0007B681B68BA680A435A607B681B681B6A37
:1050000023F03F017B685B686A4A934202D8BB6821
:10501000013309E0BB684FF4967202FB03F3694A5F
:10502000A2FB03239B0901337A6812680B431362C6
:105030007B681B68DB6923F44F4222F0FF027B6828
:105040005B685C498B4219D8FB68591E7B685B68BA
:105050005B00B1FBF3F3591C40F6FC730B40002BD3
:105060000AD0FB68591E7B685B685B00B1FBF3F3F9
:105070000133C3F30B0351E004234FE07B689B68CB
:10508000002B11D1FB68581E7B6859680B465B00EA
:105090000B44B0FBF3F30133C3F30B03002B0CBF42
:1050A00001230023DBB212E0FB68581E7B685968BD
:1050B0000B469B000B4499000B44B0FBF3F3013308
:1050C000C3F30B03002B0CBF01230023DBB2002B27
:1050D00001D0012322E07B689B68002B0ED1FB6886
:1050E000581E7B6859680B465B000B44B0FBF3F31A
:1050F0000133C3F30B0343F400430FE0FB68581E76
:105100007B6859680B469B000B4499000B44B0FB2D
:10511000F3F30133C3F30B0343F4404379680968A5
:105120001343CB617B681B681B6823F0C0017B685D
:10513000DA697B681B6A1A437B681B680A431A603A
:105140007B681B689B6823F4034323F0FF037A68A2
:1051500011697A68D26811437A6812680B439360C8
:105160007B681B68DB6823F0FF017B685A697B68FA
:105170009B691A437B681B680A43DA607B681B687B
:105180001A687B681B6842F001021A607B68002283
:105190001A647B68202283F83D207B6800221A6312
:1051A0007B68002283F83E20002318461037BD4656
:1051B00080BD00BFA08601007F841E00FF083D0067
:1051C00083DE1B43D34D621080B588B002AFF86018
:1051D0007A601A460B467B8113463B81FFF7AAFB98
:1051E0007861FB6893F83D30DBB2202B40F0E08023
:1051F0007B690093192301227049F86800F070FC64
:105200000346002B01D00223D3E0FB6893F83C3027
:10521000012B01D10223CCE0FB68012283F83C2062
:10522000FB681B681B6803F00103012B07D0FB68B8
:105230001B681A68FB681B6842F001021A60FB6871
:105240001B681A68FB681B6822F400621A60FB681E
:10525000212283F83D20FB68102283F83E20FB6862
:1052600000221A64FB687A685A62FB683A895A8598
:10527000FB685B8D9AB2FB681A85FB68504ADA625C
:1052800079897B693A6AF86800F0C2FA0346002B14
:1052900001D001238DE000233B61FB681B685B6943
:1052A0003B61FB681B689B693B613B6966E07A690F
:1052B000396AF86800F0EAFC0346002B0DD0FB6861
:1052C0001B6C042B07D1FB681B681A68FB681B6802
:1052D00042F400721A6001236BE0FB685B6A1A7883
:1052E000FB681B681A61FB685B6A5A1CFB685A62A0
:1052F000FB685B8D9BB2013B9AB2FB685A85FB68E9
:105300001B8D013B9AB2FB681A85FB681B685B69C1
:1053100003F00403042B1BD1FB681B8D002B17D05B
:10532000FB685B6A1A78FB681B681A61FB685B6A3A
:105330005A1CFB685A62FB685B8D9BB2013B9AB2B8
:10534000FB685A85FB681B8D013B9AB2FB681A8586
:105350007A69396AF86800F0DAFC0346002B0DD050
:10536000FB681B6C042B07D1FB681B681A68FB6881
:105370001B6842F400721A6001231AE0FB681B8D5F
:10538000002B94D1FB681B681A68FB681B6842F409
:1053900000721A60FB68202283F83D20FB6800221F
:1053A00083F83E20FB68002283F83C20002300E0C5
:1053B000022318461837BD4680BD00BF020010000A
:1053C0000000FFFF80B58CB002AFF86008461146C0
:1053D0001A4603467B810B463B811346FB80FFF751
:1053E000A9FA7862FB6893F83D30DBB2202B40F0DD
:1053F00008827B6A0093192301227B49F86800F038
:105400006FFB0346002B01D00223FBE1FB6893F8FE
:105410003C30012B01D10223F4E1FB68012283F827
:105420003C20FB681B681B6803F00103012B07D0BD
:10543000FB681B681A68FB681B6842F001021A606F
:10544000FB681B681A68FB681B6822F400621A601C
:10545000FB68222283F83D20FB68402283F83E202F
:10546000FB6800221A64FB683A6B5A62FB68BA8ECA
:105470005A85FB685B8D9AB2FB681A85FB685B4AAC
:10548000DA62F8883A8979897B6A0193BB6B009369
:105490000346F86800F03EFA0346002B01D00123D2
:1054A000B0E1FB681B8D002B13D100233B62FB682E
:1054B0001B685B693B62FB681B689B693B623B6ADC
:1054C000FB681B681A68FB681B6842F400721A606C
:1054D00084E1FB681B8D012B1BD1FB681B681A68DC
:1054E000FB681B6822F480621A600023FB61FB6882
:1054F0001B685B69FB61FB681B689B69FB61FB695F
:10550000FB681B681A68FB681B6842F400721A602B
:1055100064E1FB681B8D022B1BD1FB681B681A68BA
:10552000FB681B6822F480621A60FB681B681A68BB
:10553000FB681B6842F400621A600023BB61FB68D1
:105540001B685B69BB61FB681B689B69BB61BB69CE
:1055500044E100237B61FB681B685B697B61FB683E
:105560001B689B697B617B6938E1FB681B8D032BA2
:1055700000F2F180FB681B8D012B23D17A6AB96B95
:10558000F86800F005FC0346002B01D0012339E147
:10559000FB681B681A69FB685B6AD2B21A70FB6809
:1055A0005B6A5A1CFB685A62FB681B8D013B9AB20E
:1055B000FB681A85FB685B8D9BB2013B9AB2FB6866
:1055C0005A850BE1FB681B8D022B4ED17B6A009341
:1055D000BB6B00220649F86800F082FA0346002BF4
:1055E00008D001230EE100BF020010000000FFFF01
:1055F00004000100FB681B681A68FB681B6842F422
:1056000000721A60FB681B681A69FB685B6AD2B299
:105610001A70FB685B6A5A1CFB685A62FB681B8D38
:10562000013B9AB2FB681A85FB685B8D9BB2013B1C
:105630009AB2FB685A85FB681B681A69FB685B6A4B
:10564000D2B21A70FB685B6A5A1CFB685A62FB682C
:105650001B8D013B9AB2FB681A85FB685B8D9BB280
:10566000013B9AB2FB685A85B8E07B6A0093BB6B3A
:1056700000226649F86800F033FA0346002B01D097
:105680000123BFE0FB681B681A68FB681B6822F4F3
:1056900080621A60FB681B681A69FB685B6AD2B299
:1056A0001A70FB685B6A5A1CFB685A62FB681B8DA8
:1056B000013B9AB2FB681A85FB685B8D9BB2013B8C
:1056C0009AB2FB685A857B6A0093BB6B00224F49F4
:1056D000F86800F005FA0346002B01D0012391E0A1
:1056E000FB681B681A68FB681B6842F400721A604A
:1056F000FB681B681A69FB685B6AD2B21A70FB68A8
:105700005B6A5A1CFB685A62FB681B8D013B9AB2AC
:10571000FB681A85FB685B8D9BB2013B9AB2FB6804
:105720005A85FB681B681A69FB685B6AD2B21A70FB
:10573000FB685B6A5A1CFB685A62FB681B8D013B65
:105740009AB2FB681A85FB685B8D9BB2013B9AB2EB
:10575000FB685A8542E07A6AB96BF86800F018FB7A
:105760000346002B01D001234CE0FB681B681A693B
:10577000FB685B6AD2B21A70FB685B6A5A1CFB68F2
:105780005A62FB681B8D013B9AB2FB681A85FB6865
:105790005B8D9BB2013B9AB2FB685A85FB681B6824
:1057A0005B6903F00403042B18D1FB681B681A69BA
:1057B000FB685B6AD2B21A70FB685B6A5A1CFB68B2
:1057C0005A62FB681B8D013B9AB2FB681A85FB6825
:1057D0005B8D9BB2013B9AB2FB685A85FB681B8DBF
:1057E000002B7FF4C2AEFB68202283F83D20FB68CB
:1057F000002283F83E20FB68002283F83C2000232F
:1058000000E0022318462837BD4680BD0400010091
:1058100080B588B002AFF8607A603B600B467B8150
:10582000FB68DB6A7B617B69082B06D07B69012BF7
:1058300003D07B6913F5803F08D1FB681B681A68A9
:10584000FB681B6842F480721A600BE0FB681B6BFC
:10585000122B07D1FB681B681A68FB681B6842F4AF
:1058600080721A603B6800937B6800224FF0011140
:10587000F86800F035F90346002B0CD0FB681B6874
:105880001B6803F48073002B03D0FB684FF4007295
:105890001A64032335E0FB681B69B3F5804F08D118
:1058A0007B89DBB21A46FB681B6802F0FE021A61B4
:1058B0001BE07B89DB11DBB203F00603DBB263F094
:1058C0000F03DAB2FB681B681A613B687A680F49FC
:1058D000F86800F05CF90346002B01D0012310E0CA
:1058E0007B89DAB2FB681B681A613B687A680849F1
:1058F000F86800F04CF90346002B01D0012300E0CA
:10590000002318461837BD4680BD00BF08000100BF
:105910000200010080B588B002AFF8600846114669
:105920001A4603467B810B463B811346FB80FB688E
:105930001B681A68FB681B6842F480621A60FB6887
:105940001B681A68FB681B6842F480721A607B6AE5
:1059500000933B6A00224FF00111F86800F0C0F894
:105960000346002B0CD0FB681B681B6803F4807394
:10597000002B03D0FB684FF400721A640323A9E0E4
:105980007B89DBB21A46FB681B6802F0FE021A61D3
:105990007B6A3A6A5149F86800F0F9F80346002B2F
:1059A00001D0012396E000237B61FB681B685B69E3
:1059B0007B61FB681B689B697B617B697A6A396ADA
:1059C000F86800F063F90346002B0DD0FB681B6CF0
:1059D000042B07D1FB681B681A68FB681B6842F43C
:1059E00000721A60012375E0FB88012B05D13B8909
:1059F000DAB2FB681B681A6121E03B891B0A9BB283
:105A0000DAB2FB681B681A617A6A396AF86800F0D2
:105A10003DF90346002B0DD0FB681B6C042B07D10E
:105A2000FB681B681A68FB681B6842F400721A6006
:105A300001234FE03B89DAB2FB681B681A617A6A7E
:105A4000396AF86800F022F90346002B0DD0FB6894
:105A50001B6C042B07D1FB681B681A68FB681B686A
:105A600042F400721A60012334E0FB681B681A6874
:105A7000FB681B6842F480721A607B6A00933B6A81
:105A800000224FF00111F86800F02AF80346002BBD
:105A90000CD0FB681B681B6803F48073002B03D0D9
:105AA000FB684FF400721A64032313E07B89DBB2B6
:105AB00043F00103DAB2FB681B681A617B6A3A6A39
:105AC0000649F86800F063F80346002B01D0012373
:105AD00000E0002318461837BD4680BD02000100D3
